{
  "contractName": "AssetTracker",
  "abi": [
    {
      "inputs": [
        {
          "internalType": "address",
          "name": "_arbitrator",
          "type": "address"
        }
      ],
      "payable": false,
      "stateMutability": "nonpayable",
      "type": "constructor"
    },
    {
      "anonymous": false,
      "inputs": [
        {
          "indexed": false,
          "internalType": "string",
          "name": "assetUid",
          "type": "string"
        },
        {
          "indexed": false,
          "internalType": "string",
          "name": "creatorEmail",
          "type": "string"
        },
        {
          "indexed": false,
          "internalType": "uint256",
          "name": "qunatity",
          "type": "uint256"
        }
      ],
      "name": "AssetCreate",
      "type": "event"
    },
    {
      "anonymous": false,
      "inputs": [
        {
          "indexed": false,
          "internalType": "string",
          "name": "senderEmail",
          "type": "string"
        },
        {
          "indexed": false,
          "internalType": "string",
          "name": "receiverEmail",
          "type": "string"
        },
        {
          "indexed": false,
          "internalType": "string",
          "name": "assetUid",
          "type": "string"
        }
      ],
      "name": "AssetOwnershipTransfer",
      "type": "event"
    },
    {
      "anonymous": false,
      "inputs": [
        {
          "indexed": false,
          "internalType": "string",
          "name": "assetUid",
          "type": "string"
        },
        {
          "indexed": false,
          "internalType": "string",
          "name": "newAssetUid",
          "type": "string"
        },
        {
          "indexed": false,
          "internalType": "string",
          "name": "creatorEmail",
          "type": "string"
        },
        {
          "indexed": false,
          "internalType": "uint256",
          "name": "qunatity",
          "type": "uint256"
        }
      ],
      "name": "AssetSplit",
      "type": "event"
    },
    {
      "anonymous": false,
      "inputs": [
        {
          "indexed": false,
          "internalType": "string",
          "name": "ownerEmail",
          "type": "string"
        },
        {
          "indexed": false,
          "internalType": "string",
          "name": "assetUid",
          "type": "string"
        }
      ],
      "name": "AssetVerificationFailed",
      "type": "event"
    },
    {
      "anonymous": false,
      "inputs": [
        {
          "indexed": false,
          "internalType": "string",
          "name": "ownerEmail",
          "type": "string"
        },
        {
          "indexed": false,
          "internalType": "string",
          "name": "assetUid",
          "type": "string"
        }
      ],
      "name": "AssetVerificationSuccessful",
      "type": "event"
    },
    {
      "anonymous": false,
      "inputs": [
        {
          "indexed": false,
          "internalType": "string",
          "name": "name",
          "type": "string"
        },
        {
          "indexed": false,
          "internalType": "string",
          "name": "email",
          "type": "string"
        },
        {
          "indexed": false,
          "internalType": "string",
          "name": "position",
          "type": "string"
        }
      ],
      "name": "IdentityCreate",
      "type": "event"
    },
    {
      "anonymous": false,
      "inputs": [
        {
          "indexed": false,
          "internalType": "string",
          "name": "name",
          "type": "string"
        },
        {
          "indexed": false,
          "internalType": "string",
          "name": "email",
          "type": "string"
        },
        {
          "indexed": false,
          "internalType": "string",
          "name": "position",
          "type": "string"
        }
      ],
      "name": "IdentityLogin",
      "type": "event"
    },
    {
      "anonymous": false,
      "inputs": [
        {
          "indexed": false,
          "internalType": "string",
          "name": "assetUid",
          "type": "string"
        },
        {
          "indexed": false,
          "internalType": "string",
          "name": "sellerEmail",
          "type": "string"
        }
      ],
      "name": "SoldToEndConsumer",
      "type": "event"
    },
    {
      "constant": true,
      "inputs": [],
      "name": "FailureCount",
      "outputs": [
        {
          "internalType": "uint256",
          "name": "",
          "type": "uint256"
        }
      ],
      "payable": false,
      "stateMutability": "view",
      "type": "function"
    },
    {
      "constant": true,
      "inputs": [
        {
          "internalType": "uint256",
          "name": "",
          "type": "uint256"
        }
      ],
      "name": "FailureStore",
      "outputs": [
        {
          "internalType": "uint256",
          "name": "id",
          "type": "uint256"
        },
        {
          "internalType": "address",
          "name": "owner",
          "type": "address"
        },
        {
          "internalType": "string",
          "name": "uid",
          "type": "string"
        }
      ],
      "payable": false,
      "stateMutability": "view",
      "type": "function"
    },
    {
      "constant": true,
      "inputs": [],
      "name": "arbitrator",
      "outputs": [
        {
          "internalType": "address",
          "name": "",
          "type": "address"
        }
      ],
      "payable": false,
      "stateMutability": "view",
      "type": "function"
    },
    {
      "constant": true,
      "inputs": [],
      "name": "getFailureCount",
      "outputs": [
        {
          "internalType": "uint256",
          "name": "",
          "type": "uint256"
        }
      ],
      "payable": false,
      "stateMutability": "view",
      "type": "function"
    },
    {
      "constant": true,
      "inputs": [
        {
          "internalType": "uint256",
          "name": "_id",
          "type": "uint256"
        }
      ],
      "name": "getFailure",
      "outputs": [
        {
          "internalType": "string",
          "name": "",
          "type": "string"
        },
        {
          "internalType": "string",
          "name": "",
          "type": "string"
        },
        {
          "internalType": "string",
          "name": "",
          "type": "string"
        }
      ],
      "payable": false,
      "stateMutability": "view",
      "type": "function"
    },
    {
      "constant": false,
      "inputs": [
        {
          "internalType": "uint256",
          "name": "quantity",
          "type": "uint256"
        },
        {
          "internalType": "string",
          "name": "_assetUid",
          "type": "string"
        },
        {
          "internalType": "string",
          "name": "_random",
          "type": "string"
        }
      ],
      "name": "createAsset",
      "outputs": [
        {
          "internalType": "uint256",
          "name": "",
          "type": "uint256"
        }
      ],
      "payable": false,
      "stateMutability": "nonpayable",
      "type": "function"
    },
    {
      "constant": true,
      "inputs": [
        {
          "internalType": "string",
          "name": "_assetUid",
          "type": "string"
        }
      ],
      "name": "getAssetKey",
      "outputs": [
        {
          "internalType": "string",
          "name": "",
          "type": "string"
        }
      ],
      "payable": false,
      "stateMutability": "view",
      "type": "function"
    },
    {
      "constant": false,
      "inputs": [
        {
          "internalType": "string",
          "name": "_assetUid",
          "type": "string"
        },
        {
          "internalType": "uint256",
          "name": "div",
          "type": "uint256"
        },
        {
          "internalType": "string",
          "name": "_newAssetUid",
          "type": "string"
        },
        {
          "internalType": "string",
          "name": "_random",
          "type": "string"
        }
      ],
      "name": "splitAsset",
      "outputs": [
        {
          "internalType": "uint256",
          "name": "",
          "type": "uint256"
        }
      ],
      "payable": false,
      "stateMutability": "nonpayable",
      "type": "function"
    },
    {
      "constant": false,
      "inputs": [
        {
          "internalType": "string",
          "name": "_assetUid",
          "type": "string"
        },
        {
          "internalType": "string",
          "name": "_key",
          "type": "string"
        },
        {
          "internalType": "string",
          "name": "_random",
          "type": "string"
        }
      ],
      "name": "verifyAsset",
      "outputs": [
        {
          "internalType": "uint256",
          "name": "",
          "type": "uint256"
        }
      ],
      "payable": false,
      "stateMutability": "nonpayable",
      "type": "function"
    },
    {
      "constant": false,
      "inputs": [
        {
          "internalType": "string",
          "name": "_assetUid",
          "type": "string"
        },
        {
          "internalType": "string",
          "name": "_receiverEmail",
          "type": "string"
        }
      ],
      "name": "transferOwnership",
      "outputs": [
        {
          "internalType": "uint256",
          "name": "",
          "type": "uint256"
        }
      ],
      "payable": false,
      "stateMutability": "nonpayable",
      "type": "function"
    },
    {
      "constant": false,
      "inputs": [
        {
          "internalType": "string",
          "name": "_assetUid",
          "type": "string"
        }
      ],
      "name": "sellToEndConsumer",
      "outputs": [
        {
          "internalType": "uint256",
          "name": "",
          "type": "uint256"
        }
      ],
      "payable": false,
      "stateMutability": "nonpayable",
      "type": "function"
    },
    {
      "constant": false,
      "inputs": [
        {
          "internalType": "string",
          "name": "_name",
          "type": "string"
        },
        {
          "internalType": "string",
          "name": "_email",
          "type": "string"
        },
        {
          "internalType": "string",
          "name": "_password",
          "type": "string"
        },
        {
          "internalType": "string",
          "name": "_position",
          "type": "string"
        }
      ],
      "name": "createIdentity",
      "outputs": [
        {
          "internalType": "uint256",
          "name": "",
          "type": "uint256"
        }
      ],
      "payable": false,
      "stateMutability": "nonpayable",
      "type": "function"
    },
    {
      "constant": false,
      "inputs": [
        {
          "internalType": "string",
          "name": "_password",
          "type": "string"
        }
      ],
      "name": "logInIdentity",
      "outputs": [
        {
          "internalType": "uint256",
          "name": "",
          "type": "uint256"
        }
      ],
      "payable": false,
      "stateMutability": "nonpayable",
      "type": "function"
    },
    {
      "constant": true,
      "inputs": [],
      "name": "getUserAssetCount",
      "outputs": [
        {
          "internalType": "uint256",
          "name": "",
          "type": "uint256"
        },
        {
          "internalType": "string",
          "name": "",
          "type": "string"
        }
      ],
      "payable": false,
      "stateMutability": "view",
      "type": "function"
    },
    {
      "constant": true,
      "inputs": [
        {
          "internalType": "uint256",
          "name": "ind",
          "type": "uint256"
        }
      ],
      "name": "getAsset",
      "outputs": [
        {
          "internalType": "string",
          "name": "",
          "type": "string"
        },
        {
          "internalType": "bool",
          "name": "",
          "type": "bool"
        },
        {
          "internalType": "bool",
          "name": "",
          "type": "bool"
        },
        {
          "internalType": "uint256",
          "name": "",
          "type": "uint256"
        }
      ],
      "payable": false,
      "stateMutability": "view",
      "type": "function"
    }
  ],
  "bytecode": "0x608060405234801561001057600080fd5b5060405162005411380380620054118339818101604052602081101561003557600080fd5b5051600580546001600160a01b0319166001600160a01b039092169190911790556153ab80620000666000396000f3fe608060405234801561001057600080fd5b50600436106100f55760003560e01c806358d932c911610097578063b39e31a511610066578063b39e31a514610abf578063cc68e5dd14610cf2578063e148943b14610d79578063eac8f5b814610e2e576100f5565b806358d932c9146106a457806363e80281146107d45780636cc6cde1146109825780637932cb54146109a6576100f5565b8063268ca07e116100d3578063268ca07e1461036e578063376cea4014610497578063396d3f1b1461049f57806340e3935514610543576100f5565b806302e07998146100fa5780630aa3a064146101b0578063145eac7d146101b8575b600080fd5b61019e6004803603602081101561011057600080fd5b810190602081018135600160201b81111561012a57600080fd5b82018360208201111561013c57600080fd5b803590602001918460018302840111600160201b8311171561015d57600080fd5b91908080601f016020809104026020016040519081016040528093929190818152602001838380828437600092019190915250929550610ee0945050505050565b60408051918252519081900360200190f35b61019e611474565b61019e600480360360808110156101ce57600080fd5b810190602081018135600160201b8111156101e857600080fd5b8201836020820111156101fa57600080fd5b803590602001918460018302840111600160201b8311171561021b57600080fd5b91908080601f01602080910402602001604051908101604052809392919081815260200183838082843760009201919091525092958435959094909350604081019250602001359050600160201b81111561027557600080fd5b82018360208201111561028757600080fd5b803590602001918460018302840111600160201b831117156102a857600080fd5b91908080601f0160208091040260200160405190810160405280939291908181526020018383808284376000920191909152509295949360208101935035915050600160201b8111156102fa57600080fd5b82018360208201111561030c57600080fd5b803590602001918460018302840111600160201b8311171561032d57600080fd5b91908080601f01602080910402602001604051908101604052809392919081815260200183838082843760009201919091525092955061147a945050505050565b61019e6004803603604081101561038457600080fd5b810190602081018135600160201b81111561039e57600080fd5b8201836020820111156103b057600080fd5b803590602001918460018302840111600160201b831117156103d157600080fd5b91908080601f0160208091040260200160405190810160405280939291908181526020018383808284376000920191909152509295949360208101935035915050600160201b81111561042357600080fd5b82018360208201111561043557600080fd5b803590602001918460018302840111600160201b8311171561045657600080fd5b91908080601f016020809104026020016040519081016040528093929190818152602001838380828437600092019190915250929550611ec4945050505050565b61019e612929565b61019e600480360360208110156104b557600080fd5b810190602081018135600160201b8111156104cf57600080fd5b8201836020820111156104e157600080fd5b803590602001918460018302840111600160201b8311171561050257600080fd5b91908080601f01602080910402602001604051908101604052809392919081815260200183838082843760009201919091525092955061298f945050505050565b6105606004803603602081101561055957600080fd5b5035612faa565b60405180806020018060200180602001848103845287818151815260200191508051906020019080838360005b838110156105a557818101518382015260200161058d565b50505050905090810190601f1680156105d25780820380516001836020036101000a031916815260200191505b50848103835286518152865160209182019188019080838360005b838110156106055781810151838201526020016105ed565b50505050905090810190601f1680156106325780820380516001836020036101000a031916815260200191505b50848103825285518152855160209182019187019080838360005b8381101561066557818101518382015260200161064d565b50505050905090810190601f1680156106925780820380516001836020036101000a031916815260200191505b50965050505050505060405180910390f35b61019e600480360360608110156106ba57600080fd5b81359190810190604081016020820135600160201b8111156106db57600080fd5b8201836020820111156106ed57600080fd5b803590602001918460018302840111600160201b8311171561070e57600080fd5b91908080601f0160208091040260200160405190810160405280939291908181526020018383808284376000920191909152509295949360208101935035915050600160201b81111561076057600080fd5b82018360208201111561077257600080fd5b803590602001918460018302840111600160201b8311171561079357600080fd5b91908080601f0160208091040260200160405190810160405280939291908181526020018383808284376000920191909152509295506131ee945050505050565b61019e600480360360608110156107ea57600080fd5b810190602081018135600160201b81111561080457600080fd5b82018360208201111561081657600080fd5b803590602001918460018302840111600160201b8311171561083757600080fd5b91908080601f0160208091040260200160405190810160405280939291908181526020018383808284376000920191909152509295949360208101935035915050600160201b81111561088957600080fd5b82018360208201111561089b57600080fd5b803590602001918460018302840111600160201b831117156108bc57600080fd5b91908080601f0160208091040260200160405190810160405280939291908181526020018383808284376000920191909152509295949360208101935035915050600160201b81111561090e57600080fd5b82018360208201111561092057600080fd5b803590602001918460018302840111600160201b8311171561094157600080fd5b91908080601f01602080910402602001604051908101604052809392919081815260200183838082843760009201919091525092955061398d945050505050565b61098a6145b9565b604080516001600160a01b039092168252519081900360200190f35b610a4a600480360360208110156109bc57600080fd5b810190602081018135600160201b8111156109d657600080fd5b8201836020820111156109e857600080fd5b803590602001918460018302840111600160201b83111715610a0957600080fd5b91908080601f0160208091040260200160405190810160405280939291908181526020018383808284376000920191909152509295506145c8945050505050565b6040805160208082528351818301528351919283929083019185019080838360005b83811015610a84578181015183820152602001610a6c565b50505050905090810190601f168015610ab15780820380516001836020036101000a031916815260200191505b509250505060405180910390f35b61019e60048036036080811015610ad557600080fd5b810190602081018135600160201b811115610aef57600080fd5b820183602082011115610b0157600080fd5b803590602001918460018302840111600160201b83111715610b2257600080fd5b91908080601f0160208091040260200160405190810160405280939291908181526020018383808284376000920191909152509295949360208101935035915050600160201b811115610b7457600080fd5b820183602082011115610b8657600080fd5b803590602001918460018302840111600160201b83111715610ba757600080fd5b91908080601f0160208091040260200160405190810160405280939291908181526020018383808284376000920191909152509295949360208101935035915050600160201b811115610bf957600080fd5b820183602082011115610c0b57600080fd5b803590602001918460018302840111600160201b83111715610c2c57600080fd5b91908080601f0160208091040260200160405190810160405280939291908181526020018383808284376000920191909152509295949360208101935035915050600160201b811115610c7e57600080fd5b820183602082011115610c9057600080fd5b803590602001918460018302840111600160201b83111715610cb157600080fd5b91908080601f0160208091040260200160405190810160405280939291908181526020018383808284376000920191909152509295506148f8945050505050565b610cfa614ca7565b6040518083815260200180602001828103825283818151815260200191508051906020019080838360005b83811015610d3d578181015183820152602001610d25565b50505050905090810190601f168015610d6a5780820380516001836020036101000a031916815260200191505b50935050505060405180910390f35b610d9660048036036020811015610d8f57600080fd5b5035614db4565b60405180848152602001836001600160a01b03166001600160a01b0316815260200180602001828103825283818151815260200191508051906020019080838360005b83811015610df1578181015183820152602001610dd9565b50505050905090810190601f168015610e1e5780820380516001836020036101000a031916815260200191505b5094505050505060405180910390f35b610e4b60048036036020811015610e4457600080fd5b5035614e67565b60405180806020018515151515815260200184151515158152602001838152602001828103825286818151815260200191508051906020019080838360005b83811015610ea2578181015183820152602001610e8a565b50505050905090810190601f168015610ecf5780820380516001836020036101000a031916815260200191505b509550505050505060405180910390f35b336000908152600360205260408120600401546001600160a01b0316610f3b576040805162461bcd60e51b815260206004820152601a6024820152600080516020615331833981519152604482015290519081900360640190fd5b336000908152600360209081526040918290206002908101805484516001821615610100026000190190911692909204601f81018490048402830184019094528382526060939192909190830182828015610fd75780601f10610fac57610100808354040283529160200191610fd7565b820191906000526020600020905b815481529060010190602001808311610fba57829003601f168201915b50505050509050826040516020018082805190602001908083835b602083106110115780518252601f199092019160209182019101610ff2565b6001836020036101000a03801982511681845116808217855250505050505090500191505060405160208183030381529060405280519060200120816040516020018082805190602001908083835b6020831061107f5780518252601f199092019160209182019101611060565b6001836020036101000a03801982511681845116808217855250505050505090500191505060405160208183030381529060405280519060200120146110ff576040805162461bcd60e51b815260206004820152601060248201526f125b9d985b1a590814185cdcdddbdc9960821b604482015290519081900360640190fd5b3360009081526003602090815260409182902080548351601f60026000196101006001861615020190931692909204918201849004840281018401909452808452606093928301828280156111955780601f1061116a57610100808354040283529160200191611195565b820191906000526020600020905b81548152906001019060200180831161117857829003601f168201915b50505050509050606060036000336001600160a01b03166001600160a01b031681526020019081526020016000206001018054600181600116156101000203166002900480601f01602080910402602001604051908101604052809291908181526020018280546001816001161561010002031660029004801561125a5780601f1061122f5761010080835404028352916020019161125a565b820191906000526020600020905b81548152906001019060200180831161123d57829003601f168201915b5050336000908152600360208181526040928390209091018054835160026001831615610100026000190190921691909104601f8101849004840282018401909452838152969750606096955093509091508301828280156112fd5780601f106112d2576101008083540402835291602001916112fd565b820191906000526020600020905b8154815290600101906020018083116112e057829003601f168201915b505050505090507fbd0bf74a501c299a425b747329b1a59b146f5ec821ff5ce9b7d282f7f448a34c83838360405180806020018060200180602001848103845287818151815260200191508051906020019080838360005b8381101561136d578181015183820152602001611355565b50505050905090810190601f16801561139a5780820380516001836020036101000a031916815260200191505b50848103835286518152865160209182019188019080838360005b838110156113cd5781810151838201526020016113b5565b50505050905090810190601f1680156113fa5780820380516001836020036101000a031916815260200191505b50848103825285518152855160209182019187019080838360005b8381101561142d578181015183820152602001611415565b50505050905090810190601f16801561145a5780820380516001836020036101000a031916815260200191505b50965050505050505060405180910390a150505050919050565b60025481565b336000908152600360205260408120600401546001600160a01b03166114d5576040805162461bcd60e51b815260206004820152601a6024820152600080516020615331833981519152604482015290519081900360640190fd5b60006001600160a01b03166000866040518082805190602001908083835b602083106115125780518252601f1990920191602091820191016114f3565b51815160209384036101000a60001901801990921691161790529201948552506040519384900301909220600301546001600160a01b03169290921415915061159c9050576040805162461bcd60e51b8152602060048201526015602482015274417373657420646f6573206e6f742065786973742160581b604482015290519081900360640190fd5b600080866040518082805190602001908083835b602083106115cf5780518252601f1990920191602091820191016115b0565b51815160001960209485036101000a01908116901991909116179052920194855250604051938490030190922060038101549093506001600160a01b03163314915061165c9050576040805162461bcd60e51b8152602060048201526015602482015274596f75277265206e6f7420746865206f776e65722160581b604482015290519081900360640190fd5b6003810154600160a01b900460ff166116b7576040805162461bcd60e51b81526020600482015260186024820152775468652061737365742069736e27742067656e75696e652160401b604482015290519081900360640190fd5b6003810154600160a81b900460ff16611713576040805162461bcd60e51b81526020600482015260196024820152785468652061737365742069736e27742076657269666965642160381b604482015290519081900360640190fd5b8481600401541180156117265750600085115b61176d576040805162461bcd60e51b8152602060048201526013602482015272496e73756666696369656e742041737365747360681b604482015290519081900360640190fd5b60006001600160a01b03166000856040518082805190602001908083835b602083106117aa5780518252601f19909201916020918201910161178b565b51815160209384036101000a60001901801990921691161790529201948552506040519384900301909220600301546001600160a01b03169290921491506118329050576040805162461bcd60e51b8152602060048201526014602482015273547279206120646966666572656e74205549442160601b604482015290519081900360640190fd5b6000816004015490508581036000886040518082805190602001908083835b602083106118705780518252601f199092019160209182019101611851565b51815160209384036101000a600019018019909216911617905292019485525060408051948590038201852060040195909555336000908152600382529485208c518c8803966006909201959194508493508d928291908401908083835b602083106118ed5780518252601f1990920191602091820191016118ce565b518151602093840361010090810a60001990810180199094169390921692909217909252929094019687526040805197889003820190972054885287810198909852958501600090812060040198909855503387526003865295839020925160018085018054606099919896979390960195869550889450600292811615909302019091160480156119b65780601f106119945761010080835404028352918201916119b6565b820191906000526020600020905b8154815290600101906020018083116119a2575b505082805460018160011615610100020316600290048015611a0f5780601f106119ed576101008083540402835291820191611a0f565b820191906000526020600020905b8154815290600101906020018083116119fb575b50509250505060405160208183030381529060405290506060611a33868884615004565b3360008181526003602090815260408083206005018054600190810191829055825160e0810184529182528184018e905281830187905260608201959095526080810185905260a081019490945260c084018d9052518b51949550929391928b9290918291908401908083835b60208310611abf5780518252601f199092019160209182019101611aa0565b51815160209384036101000a6000190180199092169116179052920194855250604051938490038101909320845181558484015180519194611b09945060018601935001906151dc565b5060408201518051611b259160028401916020909101906151dc565b506060820151600382018054608085015160a08601511515600160a81b0260ff60a81b19911515600160a01b0260ff60a01b196001600160a01b039096166001600160a01b03199094169390931794909416919091171691909117905560c09091015160049091015560405187516000918991819060208401908083835b60208310611bc25780518252601f199092019160209182019101611ba3565b518151600019602094850361010090810a820192831692199390931691909117909252949092019687526040805197889003820190972033600090815260038352888120600581015482526006019092529690208654815560018781018054929750611c4196508782019590945060029183161502909201160461525a565b5060028281018054611c6692848101929160001961010060018316150201160461525a565b506003820160009054906101000a90046001600160a01b03168160030160006101000a8154816001600160a01b0302191690836001600160a01b031602179055506003820160149054906101000a900460ff168160030160146101000a81548160ff0219169083151502179055506003820160159054906101000a900460ff168160030160156101000a81548160ff021916908315150217905550600482015481600401559050507fc4c9423c6d306433c34ff27ea2688b03581b4ee576bf5cda0b9c5718ff16d2f8898860036000336001600160a01b03166001600160a01b031681526020019081526020016000206001018b60405180806020018060200180602001858152602001848103845288818151815260200191508051906020019080838360005b83811015611da5578181015183820152602001611d8d565b50505050905090810190601f168015611dd25780820380516001836020036101000a031916815260200191505b50848103835287518152875160209182019189019080838360005b83811015611e05578181015183820152602001611ded565b50505050905090810190601f168015611e325780820380516001836020036101000a031916815260200191505b50848103825286546002600019610100600184161502019091160480825260209091019087908015611ea55780601f10611e7a57610100808354040283529160200191611ea5565b820191906000526020600020905b815481529060010190602001808311611e8857829003601f168201915b505097505050505050505060405180910390a150505050949350505050565b336000908152600360205260408120600401546001600160a01b0316611f1f576040805162461bcd60e51b815260206004820152601a6024820152600080516020615331833981519152604482015290519081900360640190fd5b816040516020018082805190602001908083835b60208310611f525780518252601f199092019160209182019101611f33565b6001836020036101000a0380198251168184511680821785525050505050509050019150506040516020818303038152906040528051906020012060036000336001600160a01b03166001600160a01b0316815260200190815260200160002060010160405160200180828054600181600116156101000203166002900480156120135780601f10611ff1576101008083540402835291820191612013565b820191906000526020600020905b815481529060010190602001808311611fff575b505091505060405160208183030381529060405280519060200120141561206b5760405162461bcd60e51b81526004018080602001828103825260268152602001806153516026913960400191505060405180910390fd5b60006001600160a01b03166000846040518082805190602001908083835b602083106120a85780518252601f199092019160209182019101612089565b51815160209384036101000a60001901801990921691161790529201948552506040519384900301909220600301546001600160a01b0316929092141591506121329050576040805162461bcd60e51b8152602060048201526015602482015274417373657420646f6573206e6f742065786973742160581b604482015290519081900360640190fd5b60006001600160a01b03166004836040518082805190602001908083835b6020831061216f5780518252601f199092019160209182019101612150565b51815160209384036101000a60001901801990921691161790529201948552506040519384900301909220546001600160a01b0316929092141591506121fe9050576040805162461bcd60e51b815260206004820152601b60248201527f5468697320656d61696c20646f6573206e6f7420657869737473210000000000604482015290519081900360640190fd5b600080846040518082805190602001908083835b602083106122315780518252601f199092019160209182019101612212565b51815160001960209485036101000a01908116901991909116179052920194855250604051938490030190922060038101549093506001600160a01b0316331491506122be9050576040805162461bcd60e51b81526020600482015260156024820152742cb7ba9030b932903737ba103a34329037bbb732b960591b604482015290519081900360640190fd5b6003810154600160a01b900460ff16612319576040805162461bcd60e51b81526020600482015260186024820152775468652061737365742069736e27742067656e75696e652160401b604482015290519081900360640190fd5b6003810154600160a81b900460ff16612375576040805162461bcd60e51b81526020600482015260196024820152785468652061737365742069736e27742076657269666965642160381b604482015290519081900360640190fd5b33600090815260036020908152604091829020600190810180548451600293821615610100026000190190911692909204601f810184900484028301840190945283825260609391929091908301828280156124125780601f106123e757610100808354040283529160200191612412565b820191906000526020600020905b8154815290600101906020018083116123f557829003601f168201915b5050505050905060006004856040518082805190602001908083835b6020831061244d5780518252601f19909201916020918201910161242e565b51815160209384036101000a6000190180199092169116179052920194855250604080519485900382019094205433600090815260038352858120895482526006019092529381208181556001600160a01b03909416945091506124b6905060018301826152cf565b6124c46002830160006152cf565b506003810180546001600160b01b03191690556000600490910181905560405187518392918991819060208401908083835b602083106125155780518252601f1990920191602091820191016124f6565b51815160209384036101000a6000190180199092169116179052920194855250604051938490038101842060030180546001600160a01b0319166001600160a01b0396909616959095179094555050875160009283928a9290918291908401908083835b602083106125985780518252601f199092019160209182019101612579565b51815160209384036101000a60001901801990921691161790529201948552506040805194859003820185206003908101805460ff60a81b1916600160a81b98151598909802979097179096556001600160a01b038716600090815295825285206005018054600101908190558b519095948c9450925082918401908083835b602083106126375780518252601f199092019160209182019101612618565b51815160209384036101000a60001901801990921691161790529201948552506040519384900381018420949094555050875160009289929182918401908083835b602083106126985780518252601f199092019160209182019101612679565b518151600019602094850361010090810a82019283169219939093169190911790925294909201968752604080519788900382019097206001600160a01b03891660009081526003835288812060058101548252600601909252969020865481556001878101805492975061272096508782019590945060029183161502909201160461525a565b506002828101805461274592848101929160001961010060018316150201160461525a565b506003828101805491830180546001600160a01b0319166001600160a01b0390931692909217808355815460ff600160a01b918290048116151590910260ff60a01b19909216919091178084559154600160a81b9081900490911615150260ff60a81b1990911617905560049182015491015560408051606080825284519082015283517f798b171d8e0c096ada156bd776e3a039b579421a1256fc1e78ee531275dc52f792859289928b928291602080840192840191608085019189019080838360005b8381101561282257818101518382015260200161280a565b50505050905090810190601f16801561284f5780820380516001836020036101000a031916815260200191505b50848103835286518152865160209182019188019080838360005b8381101561288257818101518382015260200161286a565b50505050905090810190601f1680156128af5780820380516001836020036101000a031916815260200191505b50848103825285518152855160209182019187019080838360005b838110156128e25781810151838201526020016128ca565b50505050905090810190601f16801561290f5780820380516001836020036101000a031916815260200191505b50965050505050505060405180910390a150505092915050565b6005546000906001600160a01b03163314612987576040805162461bcd60e51b81526020600482015260196024820152782cb7ba93b932903737ba103a34329030b93134ba3930ba37b960391b604482015290519081900360640190fd5b506002545b90565b336000908152600360205260408120600401546001600160a01b03166129ea576040805162461bcd60e51b815260206004820152601a6024820152600080516020615331833981519152604482015290519081900360640190fd5b60006001600160a01b03166000836040518082805190602001908083835b60208310612a275780518252601f199092019160209182019101612a08565b51815160209384036101000a60001901801990921691161790529201948552506040519384900301909220600301546001600160a01b031692909214159150612ab19050576040805162461bcd60e51b8152602060048201526015602482015274417373657420646f6573206e6f742065786973742160581b604482015290519081900360640190fd5b3360009081526003602081815260409283902090910180548351601f6002600019610100600186161502019093169290920491820184900484028101840190945280845260609392830182828015612b4a5780601f10612b1f57610100808354040283529160200191612b4a565b820191906000526020600020905b815481529060010190602001808311612b2d57829003601f168201915b505050505090506040516020018080672932ba30b4b632b960c11b815250600801905060405160208183030381529060405280519060200120816040516020018082805190602001908083835b60208310612bb65780518252601f199092019160209182019101612b97565b6001836020036101000a0380198251168184511680821785525050505050509050019150506040516020818303038152906040528051906020012014612c3c576040805162461bcd60e51b8152602060048201526016602482015275596f75277265206e6f7420612072657461696c65722160501b604482015290519081900360640190fd5b600080846040518082805190602001908083835b60208310612c6f5780518252601f199092019160209182019101612c50565b51815160001960209485036101000a01908116901991909116179052920194855250604051938490030190922060038101549093506001600160a01b031633149150612cfc9050576040805162461bcd60e51b8152602060048201526015602482015274596f75277265206e6f7420746865206f776e65722160581b604482015290519081900360640190fd5b33600090815260036020908152604091829020600190810180548451600293821615610100026000190190911692909204601f81018490048402830184019094528382526060939192909190830182828015612d995780601f10612d6e57610100808354040283529160200191612d99565b820191906000526020600020905b815481529060010190602001808311612d7c57829003601f168201915b50503360009081526003602090815260408083208954845260060190915281208181559495509250612dd191505060018301826152cf565b612ddf6002830160006152cf565b506003810180546001600160b01b0319169055600060049091018190556040518651879190819060208401908083835b60208310612e2e5780518252601f199092019160209182019101612e0f565b51815160209384036101000a6000190180199092169116179052920194855250604051938490030190922060008082559092509050612e7060018301826152cf565b612e7e6002830160006152cf565b506003810180546001600160b01b0319169055600060049091018190556040805181815287519181019190915286517fb0ab94b93c7642aebf1e636c819c8ad5235058d1830c774a59b9d0b2ab204105928892859290918291602080840192606085019291880191908190849084905b83811015612f06578181015183820152602001612eee565b50505050905090810190601f168015612f335780820380516001836020036101000a031916815260200191505b50838103825284518152845160209182019186019080838360005b83811015612f66578181015183820152602001612f4e565b50505050905090810190601f168015612f935780820380516001836020036101000a031916815260200191505b5094505050505060405180910390a1505050919050565b600554606090819081906001600160a01b0316331461300c576040805162461bcd60e51b81526020600482015260196024820152782cb7ba93b932903737ba103a34329030b93134ba3930ba37b960391b604482015290519081900360640190fd5b6000848152600160208181526040808420808401546001600160a01b03168552600383529381902060029485018054835161010082881615026000190190911696909604601f8101859004850287018501909352828652949093840192909185918301828280156130be5780601f10613093576101008083540402835291602001916130be565b820191906000526020600020905b8154815290600101906020018083116130a157829003601f168201915b5050855460408051602060026001851615610100026000190190941693909304601f81018490048402820184019092528181529598508794509250840190508282801561314c5780601f106131215761010080835404028352916020019161314c565b820191906000526020600020905b81548152906001019060200180831161312f57829003601f168201915b5050845460408051602060026001851615610100026000190190941693909304601f8101849004840282018401909252818152959750869450925084019050828280156131da5780601f106131af576101008083540402835291602001916131da565b820191906000526020600020905b8154815290600101906020018083116131bd57829003601f168201915b505050505090509250925092509193909250565b336000908152600360205260408120600401546001600160a01b0316613249576040805162461bcd60e51b815260206004820152601a6024820152600080516020615331833981519152604482015290519081900360640190fd5b3360009081526003602081815260409283902090910180548351601f60026000196101006001861615020190931692909204918201849004840281018401909452808452606093928301828280156132e25780601f106132b7576101008083540402835291602001916132e2565b820191906000526020600020905b8154815290600101906020018083116132c557829003601f168201915b5050505050905060405160200180806b26b0b73ab330b1ba3ab932b960a11b815250600c01905060405160208183030381529060405280519060200120816040516020018082805190602001908083835b602083106133525780518252601f199092019160209182019101613333565b6001836020036101000a03801982511681845116808217855250505050505090500191505060405160208183030381529060405280519060200120146133df576040805162461bcd60e51b815260206004820152601a60248201527f596f75277265206e6f742061206d616e75666163747572657221000000000000604482015290519081900360640190fd5b60006001600160a01b03166000856040518082805190602001908083835b6020831061341c5780518252601f1990920191602091820191016133fd565b51815160209384036101000a60001901801990921691161790529201948552506040519384900301909220600301546001600160a01b03169290921491506134a49050576040805162461bcd60e51b8152602060048201526014602482015273547279206120646966666572656e74205549442160601b604482015290519081900360640190fd5b3360009081526003602090815260409182902091516001808401805460609591949193909101918291859160029082161561010002600019019091160480156135245780601f10613502576101008083540402835291820191613524565b820191906000526020600020905b815481529060010190602001808311613510575b50508280546001816001161561010002031660029004801561357d5780601f1061355b57610100808354040283529182019161357d565b820191906000526020600020905b815481529060010190602001808311613569575b505092505050604051602081830303815290604052905060606135a1858784615004565b3360008181526003602090815260408083206005018054600190810191829055825160e0810184529182528184018d905281830187905260608201959095526080810185905260a081019490945260c084018c9052518a51949550929391928a9290918291908401908083835b6020831061362d5780518252601f19909201916020918201910161360e565b51815160209384036101000a6000190180199092169116179052920194855250604051938490038101909320845181558484015180519194613677945060018601935001906151dc565b50604082015180516136939160028401916020909101906151dc565b506060820151600382018054608085015160a08601511515600160a81b0260ff60a81b19911515600160a01b0260ff60a01b196001600160a01b039096166001600160a01b03199094169390931794909416919091171691909117905560c09091015160049091015560405186516000918891819060208401908083835b602083106137305780518252601f199092019160209182019101613711565b518151600019602094850361010090810a8201928316921993909316919091179092529490920196875260408051978890038201909720336000908152600383528881206005810154825260060190925296902086548155600187810180549297506137af96508782019590945060029183161502909201160461525a565b50600282810180546137d492848101929160001961010060018316150201160461525a565b506003828101805483830180546001600160a01b0319166001600160a01b0390921691909117808255825460ff600160a01b918290048116151590910260ff60a01b19909216919091178083559254600160a81b9081900490911615150260ff60a81b1990921691909117905560049283015492909101919091553360009081526020918252604080822081519182018b905260608083528a519083015289517faeccdef1af2145341bc50a57d50bfef34f7da0c75feb65c42f0261280c438f81948b94600193909301938d939092839283810192608085019291890191908190849084905b838110156138d25781810151838201526020016138ba565b50505050905090810190601f1680156138ff5780820380516001836020036101000a031916815260200191505b508381038252855460026000196101006001841615020190911604808252602090910190869080156139725780601f1061394757610100808354040283529160200191613972565b820191906000526020600020905b81548152906001019060200180831161395557829003601f168201915b50509550505050505060405180910390a15050509392505050565b336000908152600360205260408120600401546001600160a01b03166139e8576040805162461bcd60e51b815260206004820152601a6024820152600080516020615331833981519152604482015290519081900360640190fd5b60006001600160a01b03166000856040518082805190602001908083835b60208310613a255780518252601f199092019160209182019101613a06565b51815160209384036101000a60001901801990921691161790529201948552506040519384900301909220600301546001600160a01b031692909214159150613aaf9050576040805162461bcd60e51b8152602060048201526015602482015274417373657420646f6573206e6f742065786973742160581b604482015290519081900360640190fd5b600080856040518082805190602001908083835b60208310613ae25780518252601f199092019160209182019101613ac3565b51815160001960209485036101000a01908116901991909116179052920194855250604051938490030190922060038101549093506001600160a01b031633149150613b6f9050576040805162461bcd60e51b8152602060048201526015602482015274596f75277265206e6f7420746865206f776e65722160581b604482015290519081900360640190fd5b6003810154600160a01b900460ff16613bca576040805162461bcd60e51b81526020600482015260186024820152775468652061737365742069736e27742067656e75696e652160401b604482015290519081900360640190fd5b60606000866040518082805190602001908083835b60208310613bfe5780518252601f199092019160209182019101613bdf565b518151600019602094850361010090810a8201928316921993909316919091179092529490920196875260408051978890038201882060029081018054601f600182161590980290950190941604948501829004820288018201905283875290945091925050830182828015613cb55780601f10613c8a57610100808354040283529160200191613cb5565b820191906000526020600020905b815481529060010190602001808311613c9857829003601f168201915b50505050509050606060036000336001600160a01b03166001600160a01b031681526020019081526020016000206001018054600181600116156101000203166002900480601f016020809104026020016040519081016040528092919081815260200182805460018160011615610100020316600290048015613d7a5780601f10613d4f57610100808354040283529160200191613d7a565b820191906000526020600020905b815481529060010190602001808311613d5d57829003601f168201915b50505050509050856040516020018082805190602001908083835b60208310613db45780518252601f199092019160209182019101613d95565b6001836020036101000a03801982511681845116808217855250505050505090500191505060405160208183030381529060405280519060200120826040516020018082805190602001908083835b60208310613e225780518252601f199092019160209182019101613e03565b6001836020036101000a0380198251168184511680821785525050505050509050019150506040516020818303038152906040528051906020012014156142ce57336000908152600360209081526040918290209151600180840180546060959194919390910191829185916002908216156101000260001901909116048015613ee35780601f10613ec1576101008083540402835291820191613ee3565b820191906000526020600020905b815481529060010190602001808311613ecf575b505082805460018160011615610100020316600290048015613f3c5780601f10613f1a576101008083540402835291820191613f3c565b820191906000526020600020905b815481529060010190602001808311613f28575b50509250505060405160208183030381529060405290506060613f60878a84615004565b90508060036000336001600160a01b03166001600160a01b031681526020019081526020016000206006016000808c6040518082805190602001908083835b60208310613fbe5780518252601f199092019160209182019101613f9f565b51815160209384036101000a6000190180199092169116179052920194855250604080519485900382019094205485528481019590955250500160002082516140119360029092019291909101906151dc565b50600160036000336001600160a01b03166001600160a01b031681526020019081526020016000206006016000808c6040518082805190602001908083835b6020831061406f5780518252601f199092019160209182019101614050565b6001836020036101000a038019825116818451168082178552505050505050905001915050908152602001604051809103902060000154815260200190815260200160002060030160156101000a81548160ff0219169083151502179055508060008a6040518082805190602001908083835b602083106141015780518252601f1990920191602091820191016140e2565b51815160209384036101000a600019018019909216911617905292019485525060405193849003810190932084516141469560029092019491909101925090506151dc565b50600160008a6040518082805190602001908083835b6020831061417b5780518252601f19909201916020918201910161415c565b51815160209384036101000a6000190180199092169116179052920194855250604080519485900382018520600301805460ff60a81b1916600160a81b9715159790970296909617909555848452875194840194909452505084517f8b9d2d5e499cfb00d2759dc7343449b227172792179e3667cc26102837558dde9286928d92909182918282019160608401919087019080838360005b8381101561422b578181015183820152602001614213565b50505050905090810190601f1680156142585780820380516001836020036101000a031916815260200191505b50838103825284518152845160209182019186019080838360005b8381101561428b578181015183820152602001614273565b50505050905090810190601f1680156142b85780820380516001836020036101000a031916815260200191505b5094505050505060405180910390a150506145af565b600060036000336001600160a01b03166001600160a01b031681526020019081526020016000206006016000808a6040518082805190602001908083835b6020831061432b5780518252601f19909201916020918201910161430c565b6001836020036101000a038019825116818451168082178552505050505050905001915050908152602001604051809103902060000154815260200190815260200160002060030160146101000a81548160ff021916908315150217905550600080886040518082805190602001908083835b602083106143bd5780518252601f19909201916020918201910161439e565b6001836020036101000a038019825116818451168082178552505050505050905001915050908152602001604051809103902060030160146101000a81548160ff02191690831515021790555060026000815480929190600101919050555060405180606001604052806002548152602001336001600160a01b03168152602001888152506001600060025481526020019081526020016000206000820151816000015560208201518160010160006101000a8154816001600160a01b0302191690836001600160a01b0316021790555060408201518160020190805190602001906144aa9291906151dc565b509050507f596149562c4f1f2e4b30fadcb7bd1a4567050986d8d7fb6a9d58948213dde2208188604051808060200180602001838103835285818151815260200191508051906020019080838360005b838110156145125781810151838201526020016144fa565b50505050905090810190601f16801561453f5780820380516001836020036101000a031916815260200191505b50838103825284518152845160209182019186019080838360005b8381101561457257818101518382015260200161455a565b50505050905090810190601f16801561459f5780820380516001836020036101000a031916815260200191505b5094505050505060405180910390a15b5050509392505050565b6005546001600160a01b031681565b336000908152600360205260409020600401546060906001600160a01b0316614626576040805162461bcd60e51b815260206004820152601a6024820152600080516020615331833981519152604482015290519081900360640190fd5b60006001600160a01b03166000836040518082805190602001908083835b602083106146635780518252601f199092019160209182019101614644565b51815160209384036101000a60001901801990921691161790529201948552506040519384900301909220600301546001600160a01b0316929092141591506146ed9050576040805162461bcd60e51b8152602060048201526015602482015274417373657420646f6573206e6f742065786973742160581b604482015290519081900360640190fd5b600080836040518082805190602001908083835b602083106147205780518252601f199092019160209182019101614701565b51815160001960209485036101000a01908116901991909116179052920194855250604051938490030190922060038101549093506001600160a01b0316331491506147ad9050576040805162461bcd60e51b8152602060048201526015602482015274596f75277265206e6f7420746865206f776e65722160581b604482015290519081900360640190fd5b6003810154600160a01b900460ff16614808576040805162461bcd60e51b81526020600482015260186024820152775468652061737365742069736e27742067656e75696e652160401b604482015290519081900360640190fd5b6003810154600160a81b900460ff16614864576040805162461bcd60e51b81526020600482015260196024820152785468652061737365742069736e27742076657269666965642160381b604482015290519081900360640190fd5b600281810180546040805160206001841615610100026000190190931694909404601f8101839004830285018301909152808452908301828280156148ea5780601f106148bf576101008083540402835291602001916148ea565b820191906000526020600020905b8154815290600101906020018083116148cd57829003601f168201915b50505050509150505b919050565b6000806001600160a01b03166004856040518082805190602001908083835b602083106149365780518252601f199092019160209182019101614917565b51815160209384036101000a60001901801990921691161790529201948552506040519384900301909220546001600160a01b03169290921491506149c49050576040805162461bcd60e51b815260206004820152601b60248201527f5468697320656d61696c20697320616c72656164792075736564210000000000604482015290519081900360640190fd5b336000908152600360205260409020600401546001600160a01b031615614a32576040805162461bcd60e51b815260206004820152601c60248201527f596f7520416c7265616479204861766520416e204163636f756e742100000000604482015290519081900360640190fd5b33600090815260036020908152604090912086519091614a569183918901906151dc565b508451614a6c90600183019060208801906151dc565b508351614a8290600283019060208701906151dc565b508251614a9890600383019060208601906151dc565b50600480820180546001600160a01b03191633908117909155600060058401556040518751919291889190819060208401908083835b60208310614aed5780518252601f199092019160209182019101614ace565b51815160209384036101000a600019018019909216911617905292019485525060408051948590038201852080546001600160a01b0319166001600160a01b03979097169690961790955560608085528b51908501528a517f133561d57163d827b6672878a1fbdd752b3d3a77b2170dca0fff4fdaf4dcfe44958c958c95508a94509283928382019284019160808501919089019080838360005b83811015614ba0578181015183820152602001614b88565b50505050905090810190601f168015614bcd5780820380516001836020036101000a031916815260200191505b50848103835286518152865160209182019188019080838360005b83811015614c00578181015183820152602001614be8565b50505050905090810190601f168015614c2d5780820380516001836020036101000a031916815260200191505b50848103825285518152855160209182019187019080838360005b83811015614c60578181015183820152602001614c48565b50505050905090810190601f168015614c8d5780820380516001836020036101000a031916815260200191505b50965050505050505060405180910390a150949350505050565b336000908152600360205260408120600401546060906001600160a01b0316614d05576040805162461bcd60e51b815260206004820152601a6024820152600080516020615331833981519152604482015290519081900360640190fd5b33600090815260036020818152604092839020600581015492018054845160026001831615610100026000190190921691909104601f81018490048402820184019095528481529293909291839190830182828015614da55780601f10614d7a57610100808354040283529160200191614da5565b820191906000526020600020905b815481529060010190602001808311614d8857829003601f168201915b50505050509050915091509091565b6001602081815260009283526040928390208054818401546002808401805488516101009882161598909802600019011691909104601f810186900486028701860190975286865291956001600160a01b03909116949293830182828015614e5d5780601f10614e3257610100808354040283529160200191614e5d565b820191906000526020600020905b815481529060010190602001808311614e4057829003601f168201915b5050505050905083565b3360009081526003602052604081206004015460609190819081906001600160a01b0316614eca576040805162461bcd60e51b815260206004820152601a6024820152600080516020615331833981519152604482015290519081900360640190fd5b3360008181526003602081815260408084208a855260060190915290912001546001600160a01b03161415614fd757336000908152600360208181526040808420898552600601825292839020918201546004830154600193840180548651600261010097831615979097026000190190911695909504601f810185900485028601850190965285855294600160a81b830460ff90811695600160a01b9094041693919291869190830182828015614fc35780601f10614f9857610100808354040283529160200191614fc3565b820191906000526020600020905b815481529060010190602001808311614fa657829003601f168201915b505050505093509350935093509350614ffd565b50506040805180820190915260048152634e6f6e6560e01b602082015291506000905080805b9193509193565b6060615110848484436040516020018085805190602001908083835b6020831061503f5780518252601f199092019160209182019101615020565b51815160209384036101000a600019018019909216911617905287519190930192870191508083835b602083106150875780518252601f199092019160209182019101615068565b51815160209384036101000a600019018019909216911617905286519190930192860191508083835b602083106150cf5780518252601f1990920191602091820191016150b0565b51815160209384036101000a600019018019909216911617905292019384525060408051808503815293820190528251920191909120935061511892505050565b949350505050565b6060818061513f5750506040805180820190915260018152600360fc1b60208201526148f3565b8060005b811561515757600101600a82049150615143565b6060816040519080825280601f01601f191660200182016040528015615184576020820181803883390190505b50905060001982015b84156151d257600a850660300160f81b828280600190039350815181106151b057fe5b60200101906001600160f81b031916908160001a905350600a8504945061518d565b5095945050505050565b828054600181600116156101000203166002900490600052602060002090601f016020900481019282601f1061521d57805160ff191683800117855561524a565b8280016001018555821561524a579182015b8281111561524a57825182559160200191906001019061522f565b50615256929150615316565b5090565b828054600181600116156101000203166002900490600052602060002090601f016020900481019282601f10615293578054855561524a565b8280016001018555821561524a57600052602060002091601f016020900482015b8281111561524a5782548255916001019190600101906152b4565b50805460018160011615610100020316600290046000825580601f106152f55750615313565b601f0160209004906000526020600020908101906153139190615316565b50565b61298c91905b80821115615256576000815560010161531c56fe596f7520446f6e2774204861766520416e204163636f756e742100000000000043616e6e6f74207472616e73666572206f776e65727368697020746f20796f757273656c6621a265627a7a72315820a69ae9858dfb9fadb0d6345bd1204cfda4273b9cf547531200fa8ec5f38aab5c64736f6c63430005100032",
  "source": "// SPDX-License-Identifier: Apache-2.0\n//\n// Licensed under the Apache License, Version 2.0 (the \"License\");\n// you may not use this file except in compliance with the License.\n// You may obtain a copy of the License at\n//\n// http://www.apache.org/licenses/LICENSE-2.0\n//\n// Unless required by applicable law or agreed to in writing, software\n// distributed under the License is distributed on an \"AS IS\" BASIS,\n// WITHOUT WARRANTIES OR CONDITIONS OF ANY KIND, either express or implied.\n// See the License for the specific language governing permissions and\n// limitations under the License.\n\npragma solidity >=0.5.0 <=0.7.4;\nimport \"./Library.sol\";\n\ncontract AssetTracker {\n    // Asset mapping\n    mapping(string => Library.Asset) AssetStore;\n\n    // Failed Verification mapping and count\n    mapping(uint => Library.Failure) public FailureStore;\n    uint public FailureCount;\n\n    // Identity mapping\n    mapping(address => Library.Identity) IdentityStore;\n    mapping(string => address) private IdentityLookup;\n\n    // Arbitrator's address\n    address public arbitrator;\n\n    constructor (address _arbitrator) public {\n        arbitrator = _arbitrator;\n    }\n\n    // Get Failure Count\n    function getFailureCount() public view returns (uint256) {\n        require(msg.sender == arbitrator,\"You're not the arbitrator\");\n        return FailureCount;\n    }\n\n    // Get Failure\n    function getFailure(uint _id) public view returns (string memory, string memory, string memory) {\n        require(msg.sender == arbitrator,\"You're not the arbitrator\");\n        return (FailureStore[_id].uid,IdentityStore[FailureStore[_id].owner].name,IdentityStore[FailureStore[_id].owner].email);\n    }\n\n    // Create Asset\n    function createAsset(\n        uint256 quantity,\n        string memory _assetUid,\n        string memory _random\n    ) public returns (uint256) {\n        require(\n            IdentityStore[msg.sender].addr != address(0),\n            \"You Don't Have An Account!\"\n        );\n        string memory accer = IdentityStore[msg.sender].position;\n        require(\n            keccak256(abi.encodePacked((accer))) ==\n                keccak256(abi.encodePacked((\"Manufacturer\"))),\n            \"You're not a manufacturer!\"\n        );\n        require(\n            AssetStore[_assetUid].ownerAddress == address(0),\n            \"Try a different UID!\"\n        );\n        string memory details = string(\n            abi.encodePacked(\n                IdentityStore[msg.sender].email,\n                IdentityStore[msg.sender].name\n            )\n        );\n        string memory acc = createKey(_random, _assetUid, details);\n        IdentityStore[msg.sender].assetCount++;\n        AssetStore[_assetUid] = Library.Asset(\n            IdentityStore[msg.sender].assetCount,\n            _assetUid,\n            acc,\n            msg.sender,\n            true,\n            true,\n            quantity\n        );\n        IdentityStore[msg.sender].ownedAssets[IdentityStore[msg.sender]\n            .assetCount] = AssetStore[_assetUid];\n        emit AssetCreate(_assetUid, IdentityStore[msg.sender].email, quantity);\n    }\n\n    // Get Asset Key\n    function getAssetKey(string memory _assetUid)\n        public\n        view\n        returns (string memory)\n    {\n        require(\n            IdentityStore[msg.sender].addr != address(0),\n            \"You Don't Have An Account!\"\n        );\n        require(\n            AssetStore[_assetUid].ownerAddress != address(0),\n            \"Asset does not exist!\"\n        );\n        Library.Asset storage curr = AssetStore[_assetUid];\n        require(curr.ownerAddress == msg.sender, \"You're not the owner!\");\n        require(curr.isGenuine, \"The asset isn't genuine!\");\n        require(curr.isVerified, \"The asset isn't verified!\");\n        return curr.key;\n    }\n\n    // Split asset into two\n    function splitAsset(\n        string memory _assetUid,\n        uint256 div,\n        string memory _newAssetUid,\n        string memory _random\n    ) public returns (uint256) {\n        require(\n            IdentityStore[msg.sender].addr != address(0),\n            \"You Don't Have An Account!\"\n        );\n        require(\n            AssetStore[_assetUid].ownerAddress != address(0),\n            \"Asset does not exist!\"\n        );\n        Library.Asset storage curr = AssetStore[_assetUid];\n        require(curr.ownerAddress == msg.sender, \"You're not the owner!\");\n        require(curr.isGenuine, \"The asset isn't genuine!\");\n        require(curr.isVerified, \"The asset isn't verified!\");\n        require(curr.quantity > div && div > 0, \"Insufficient Assets\");\n        require(\n            AssetStore[_newAssetUid].ownerAddress == address(0),\n            \"Try a different UID!\"\n        );\n        uint256 ogQty = curr.quantity;\n        AssetStore[_assetUid].quantity = ogQty - div;\n        IdentityStore[msg.sender].ownedAssets[AssetStore[_assetUid].ownerFlag].quantity = ogQty - div;\n        string memory details = string(\n            abi.encodePacked(\n                IdentityStore[msg.sender].email,\n                IdentityStore[msg.sender].name\n            )\n        );\n        string memory acc = createKey(_random, _newAssetUid, details);\n        IdentityStore[msg.sender].assetCount++;\n        AssetStore[_newAssetUid] = Library.Asset(\n            IdentityStore[msg.sender].assetCount,\n            _newAssetUid,\n            acc,\n            msg.sender,\n            true,\n            true,\n            div\n        );\n        IdentityStore[msg.sender].ownedAssets[IdentityStore[msg.sender]\n            .assetCount] = AssetStore[_newAssetUid];\n        emit AssetSplit(\n            _assetUid,\n            _newAssetUid,\n            IdentityStore[msg.sender].email,\n            div\n        );\n    }\n\n    // Verification of asset\n    function verifyAsset(\n        string memory _assetUid,\n        string memory _key,\n        string memory _random\n    ) public returns (uint256) {\n        require(\n            IdentityStore[msg.sender].addr != address(0),\n            \"You Don't Have An Account!\"\n        );\n        require(\n            AssetStore[_assetUid].ownerAddress != address(0),\n            \"Asset does not exist!\"\n        );\n        Library.Asset storage curr = AssetStore[_assetUid];\n        require(curr.ownerAddress == msg.sender, \"You're not the owner!\");\n        require(curr.isGenuine, \"The asset isn't genuine!\");\n        string memory acc = AssetStore[_assetUid].key;\n        string memory _ownerEmail = IdentityStore[msg.sender].email;\n        if (\n            keccak256(abi.encodePacked((acc))) ==\n            keccak256(abi.encodePacked((_key)))\n        ) {\n            string memory _details = string(\n                abi.encodePacked(\n                    IdentityStore[msg.sender].email,\n                    IdentityStore[msg.sender].name\n                )\n            );\n            string memory keyer = createKey(_random, _assetUid, _details);\n            IdentityStore[msg.sender].ownedAssets[AssetStore[_assetUid].ownerFlag].key = keyer;\n            IdentityStore[msg.sender].ownedAssets[AssetStore[_assetUid].ownerFlag].isVerified = true;\n            AssetStore[_assetUid].key = keyer;\n            AssetStore[_assetUid].isVerified = true;\n            emit AssetVerificationSuccessful(_ownerEmail, _assetUid);\n        } else {\n            IdentityStore[msg.sender].ownedAssets[AssetStore[_assetUid].ownerFlag].isGenuine = false;\n            AssetStore[_assetUid].isGenuine = false;\n            FailureCount++;\n            FailureStore[FailureCount] = Library.Failure(FailureCount,msg.sender,_assetUid);\n            emit AssetVerificationFailed(_ownerEmail, _assetUid);\n        }\n    }\n\n    // Transfer ownership\n    function transferOwnership(\n        string memory _assetUid,\n        string memory _receiverEmail\n    ) public returns (uint256) {\n        require(\n            IdentityStore[msg.sender].addr != address(0),\n            \"You Don't Have An Account!\"\n        );\n        require(\n            keccak256(abi.encodePacked((IdentityStore[msg.sender].email))) != keccak256(abi.encodePacked((_receiverEmail))),\n            \"Cannot transfer ownership to yourself!\"\n        );\n        require(\n            AssetStore[_assetUid].ownerAddress != address(0),\n            \"Asset does not exist!\"\n        );\n        require(\n            IdentityLookup[_receiverEmail] != address(0),\n            \"This email does not exists!\"\n        );\n        Library.Asset storage curr = AssetStore[_assetUid];\n        require(curr.ownerAddress == msg.sender,\"You are not the owner\");\n        require(curr.isGenuine, \"The asset isn't genuine!\");\n        require(curr.isVerified, \"The asset isn't verified!\");\n        string memory _senderEmail = IdentityStore[msg.sender].email;\n        address acc = IdentityLookup[_receiverEmail];\n        delete IdentityStore[msg.sender].ownedAssets[curr.ownerFlag];\n        AssetStore[_assetUid].ownerAddress = acc;\n        AssetStore[_assetUid].isVerified = false;\n        IdentityStore[acc].assetCount++;\n        AssetStore[_assetUid].ownerFlag = IdentityStore[acc].assetCount;\n        IdentityStore[acc].ownedAssets[IdentityStore[acc]\n            .assetCount] = AssetStore[_assetUid];\n        emit AssetOwnershipTransfer(_senderEmail, _receiverEmail, _assetUid);\n    }\n\n    // Sell to end consumer\n    function sellToEndConsumer(string memory _assetUid)\n        public\n        returns (uint256)\n    {\n        require(\n            IdentityStore[msg.sender].addr != address(0),\n            \"You Don't Have An Account!\"\n        );\n        require(\n            AssetStore[_assetUid].ownerAddress != address(0),\n            \"Asset does not exist!\"\n        );\n        string memory accer = IdentityStore[msg.sender].position;\n        require(\n            keccak256(abi.encodePacked((accer))) ==\n                keccak256(abi.encodePacked((\"Retailer\"))),\n            \"You're not a retailer!\"\n        );\n        Library.Asset storage curr = AssetStore[_assetUid];\n        require(curr.ownerAddress == msg.sender, \"You're not the owner!\");\n        string memory _sellerEmail = IdentityStore[msg.sender].email;\n        delete IdentityStore[msg.sender].ownedAssets[curr.ownerFlag];\n        delete AssetStore[_assetUid];\n        emit SoldToEndConsumer(_assetUid, _sellerEmail);\n    }\n\n    // Sign-up function\n    function createIdentity(\n        string memory _name,\n        string memory _email,\n        string memory _password,\n        string memory _position\n    ) public returns (uint256) {\n        require(\n            IdentityLookup[_email] == address(0),\n            \"This email is already used!\"\n        );\n        require(\n            IdentityStore[msg.sender].addr == address(0),\n            \"You Already Have An Account!\"\n        );\n        Library.Identity storage newIdentity = IdentityStore[msg.sender];\n        newIdentity.name = _name;\n        newIdentity.email = _email;\n        newIdentity.password = _password;\n        newIdentity.position = _position;\n        newIdentity.addr = msg.sender;\n        newIdentity.assetCount = 0;\n        IdentityLookup[_email] = msg.sender;\n        emit IdentityCreate(_name, _email, _position);\n    }\n\n    // Login function\n    function logInIdentity(string memory _password) public returns (uint256) {\n        require(\n            IdentityStore[msg.sender].addr != address(0),\n            \"You Don't Have An Account!\"\n        );\n        string memory acc = IdentityStore[msg.sender].password;\n        require(\n            keccak256(abi.encodePacked((acc))) ==\n                keccak256(abi.encodePacked((_password))),\n            \"Invalid Password\"\n        );\n        string memory _name = IdentityStore[msg.sender].name;\n        string memory _email = IdentityStore[msg.sender].email;\n        string memory _position = IdentityStore[msg.sender].position;\n        emit IdentityLogin(_name, _email, _position);\n    }\n\n    // Create key for asset\n    function createKey(\n        string memory _random,\n        string memory _assetUid,\n        string memory _details\n    ) internal view returns (string memory) {\n        return uintToString(uint(keccak256(abi.encodePacked(_random, _assetUid, _details, block.number))));\n    }\n\n    // Get asset count of user\n    function getUserAssetCount() public view returns (uint,string memory) {\n        require(\n            IdentityStore[msg.sender].addr != address(0),\n            \"You Don't Have An Account!\"\n        );\n        return (IdentityStore[msg.sender].assetCount,IdentityStore[msg.sender].position);\n    }\n\n    // Get Assets of a user\n    function getAsset(uint256 ind)\n        public\n        view\n        returns (\n            string memory,\n            bool,\n            bool,\n            uint256\n        )\n    {\n        require(\n            IdentityStore[msg.sender].addr != address(0),\n            \"You Don't Have An Account!\"\n        );\n        if (\n            IdentityStore[msg.sender].ownedAssets[ind].ownerAddress ==\n            msg.sender\n        ) {\n            return (\n                IdentityStore[msg.sender].ownedAssets[ind].assetUid,\n                IdentityStore[msg.sender].ownedAssets[ind].isVerified,\n                IdentityStore[msg.sender].ownedAssets[ind].isGenuine,\n                IdentityStore[msg.sender].ownedAssets[ind].quantity\n            );\n        } else {\n            return (\"None\", false, false, 0);\n        }\n    }\n\n    // Uint to string\n    function uintToString(uint _i) internal pure returns (string memory) {\n        uint temp = _i;\n        if (temp == 0) {\n            return \"0\";\n        }\n        uint j = temp;\n        uint len;\n        while (j != 0) {\n            len++;\n            j /= 10;\n        }\n        bytes memory bstr = new bytes(len);\n        uint k = len - 1;\n        while (temp != 0) {\n            bstr[k--] = byte(uint8(48 + temp % 10));\n            temp /= 10;\n        }\n        return string(bstr);\n    }\n\n    // Asset sold to end consumer\n    event SoldToEndConsumer(string assetUid, string sellerEmail);\n\n    // Asset Verification Successful\n    event AssetVerificationSuccessful(string ownerEmail, string assetUid);\n\n    // Asset Verification Failed\n    event AssetVerificationFailed(string ownerEmail, string assetUid);\n\n    // Asset Ownership Transfer Event\n    event AssetOwnershipTransfer(\n        string senderEmail,\n        string receiverEmail,\n        string assetUid\n    );\n\n    // Asset Create Event\n    event AssetCreate(string assetUid, string creatorEmail, uint256 qunatity);\n\n    // Asset Create Event\n    event AssetSplit(\n        string assetUid,\n        string newAssetUid,\n        string creatorEmail,\n        uint256 qunatity\n    );\n\n    // Sign-up Event\n    event IdentityCreate(string name, string email, string position);\n\n    // Login Event\n    event IdentityLogin(string name, string email, string position);\n}",
  "sourcePath": "C:\\Project\\Asset-Tracker-dApp-main\\Asset-Tracker-dApp-main\\contracts\\AssetTracker.sol",
  "compiler": {
    "name": "solc",
    "version": "0.5.16+commit.9c3226ce.Emscripten.clang"
  },
  "schemaVersion": "3.4.16",
  "updatedAt": "2024-05-02T06:46:10.263Z",
  "devdoc": {
    "methods": {}
  },
  "userdoc": {
    "methods": {}
  }
}